:020000040000FA
:100000000C94F43A0C94063B0C94063B0C94063B7F
:100010000C94063B0C94063B0C94063B0C94063B5C
:100020000C94063B0C94063B0C94063B0C94523B00
:100030000C94063B0C94063B0C94063B0C94063B3C
:100040000C94083B0C94063B0C94063B0C94063B2A
:100050000C94063B0C94063B0C94063B0C94063B1C
:100060000C94063B0C94063B0000000800020100C3
:100070000003040700000000000000000000000072
:10008000250028002B0000000000240027002A0083
:10009000040404040404040402020202020203032E
:1000A0000303030301020408102040800102040836
:1000B000102001020408102081818080807F7F7FD2
:1000C0007F7F808081818181818182818181818125
:1000D00081807E7E7E7E7D7D7C7A7B7C7C7B7B7D51
:1000E0007E818282807F7F7F7E7E7D7D7D7F81811C
:1000F0008082838283868584837F7C7A7773757D13
:100100008281807E7C7F858582807D7C7D7E7E7EF7
:100110007E7D7E7E7D7E7F808080807F7F7F7F80F2
:1001200081807F7F808181818182817F7F818281C7
:10013000818080818282818080807F7E7F818282B7
:100140008281807F7F7D7D7E7E7E7F8181818282B4
:1001500082838483807F7D7D7D7E7D7E7F7F7F7FA8
:1001600080828282817E7D7E8182807E7E7F7F7E94
:100170007F7E7E7F80808080808182817F807F7D86
:100180008083817E7D7D7F81817F7F80818382816D
:1001900081807F7F807F7F7E7D7E80808080808168
:1001A000808081807F808080807F7F808080808051
:1001B0008181807E7F7F818484817C7A7A7D80804A
:1001C0007E7D7D7E7E7C7B7C7E7F7F7E7E7F7E7C57
:1001D0007D808080817F7C7D7F7F7F7F7F7E7F822F
:1001E00083828180808180807F7E7F818384838100
:1001F0007F807F7F81817E7E8080828586837F7DF8
:100200007D7F818382807F7F8080807F7F7E7D7CF9
:100210007D7F7F7E7E7E7E7F817F7D7E7D7C7C7EFE
:100220007E7E7F7F7E7E7F7F7F7F7F7F7F807F7EE2
:100230007F807F7E7E80807F807F7E8081828282C1
:10024000818081818081817F7E7F818282817F80A8
:100250008281808181818181807F7F7F8080807F9A
:100260007E7D7E8080808181807F808181807F7E95
:100270007E7F80807F7E7D7D7E7F7F7F80807F7E92
:100280007E7F7F7F7F807F7F7F7F7E7E7F7F7F7F80
:100290007E7E7F808080808181807F80807F7F7E66
:1002A0007D7D7F7F7F7F8081808081828281808150
:1002B0008384838283848281818181818181818021
:1002C000818181828281817F7E807F7E7E7D7E7F33
:1002D0007F7F7F7F7F7F7F808080817F7E7F7E7E2C
:1002E0007F7E7C7A7A7D81838280818387898988F9
:1002F00086888A8D8F909397979088878B8F92941A
:10030000918C8886847E878C756367675E5E6A6B76
:10031000666A727877797E7F7B7774737A7F767678
:100320007E85868287857C79787975757D849096BF
:100330008D7F77797874787E7B7D8C91877B706DEB
:10034000737B807C6D61677075797F838281858620
:1003500083848F8D807E80796E6D6F6D69686D711D
:1003600072767A7B7674787D898F897C6D696E6F01
:10037000737471747A7C7F7F7F8486807A7E868CAA
:10038000908F8C8C8C8C8B867E7B7F8284888E90E9
:10039000909191919295978F8685898E8E89827A98
:1003A00076777B80868B8E92918E87827E7A7A801A
:1003B0008C948E8480838A8D8C8B8A8D92938F8D82
:1003C0008B86807E82898F93959DA0968F8C8D9948
:1003D000A19FA3A29CA1ACB0B5BFCDCDBDA9978470
:1003E0007F89979174626570777B786D58525E6FE4
:1003F000746B6253443A4148484B493E36251D25AB
:100400003136322E27282F312E2E3A48494B515D56
:100410006E798987766E7881808D9D989497929178
:10042000989EA0A0968A828693A4AEADABA49C8F22
:100430008F9DAAAFB3B0A9A09B90807D7E8088835A
:10044000767268615D5757646B6C7271675F606E3E
:100450007D8D8F99BACDD2C4A68C8B8E8E78665E38
:1004600040394754606264665D62696F7875717483
:100470006D6A79837D787B706D77766C69696F7E44
:100480008C90939A9A9999A3A594838188929B9D25
:100490009F948B97AABCC7CDCEC1B4A89F99979AB9
:1004A000A399857D7A8AA0AEB2AC9D8A7E868F9113
:1004B000908F8D8F98918B83796D66707780837222
:1004C000686055453D3D3938353134425862666B78
:1004D0006B727B7D7376808A969E9C989CA2A3A368
:1004E000A8AEB5B1A99C8F888B9183797A7571710B
:1004F0007D857B7375747077827D7271726C6D739C
:10050000716E69727A7A7D8B9FA0988F888993A289
:10051000ACAEA3948F92928E908E857E7E7E8285E5
:100520007B6A6B798399A2A0998F8881898F8A7D54
:1005300071727885A2D4E3BC9F8C8A8E9297765292
:100540003F3C474D52646E6D737D848C8D81838EEC
:10055000B1B57960584B535D5A4F4E5F788CAABF46
:1005600092716E5E5D6C6B6353414B636E6C767E15
:100570007C797775726A6864595654504D4A4A536B
:100580006275818A8A89806F6D6C64636E71707325
:10059000757780837D7A7E858A8B8D8E88898D8D17
:1005A0008E96A2AFB3B3BAB5ADACA3A0A09EA5A6DC
:1005B000978883888A827F84868381858E8E8682CF
:1005C0007F766A626977807F7A75726B6A71757DF2
:1005D00085868481869198948372625E6165707B62
:1005E000878F939A99958F8885807664595A5E6033
:1005F0005A585B5E6B7A7B777D7B756F70787C7DFC
:10060000828D8A909598A09A8F85838C8E85838021
:100610007F7F8998978D8276695E616F7E868B96E3
:100620009EA59F91827B7D8D9CA4B1B6BDC1C6E481
:10063000EEEBD5A37E5E5A70766B66584642433D1C
:10064000403F424753717B888C7965636B695D5588
:10065000556D858E918E8B807670706C6C6B7F95EE
:10066000A2A69B86736761696566675E5C66727841
:100670007B8279695A576B7A7E7E8286929EA8A683
:100680009D9B928A8C938D787275777A8A948B85EC
:10069000837F8191A1A2A0A29D9DA4A69485818221
:1006A0008C90938F7C737577787A7F7E7B7C80814A
:1006B000868D8E8386939197A09A8A898983828377
:1006C000807F7A8A9E998B838B8B857C7C796B6605
:1006D00066686C6C6D71767C7A797778777B7B78DD
:1006E0007071898D89858079747B8584776E6D754D
:1006F0007B90ABB5AFA09780798D886E606468679A
:10070000686C6E69636C748098A4A09484706D7B2F
:100710008F908E8F837367625C5B5D5F64737975A6
:1007200075868F9FA57D6C808888847F746F7A6FB3
:10073000728694928A837B7E939F8675746C73898C
:100740008E7D76838F8E817C808A87767076838794
:100750008681808C9C9FA4A49FA18E7869615D5E38
:100760007791A5AA96838A958469646362799EAA23
:100770008C634B557797ADAE906B565C747B7E8ADD
:1007800089725D667F84818A908978718B9F9B8A4C
:1007900079746E727A7D7E7E879BA1999490806930
:1007A000585056656A717F87837D766A697584843F
:1007B0009298856A595F7083A0B2A0857474757B26
:1007C0008DA09E947F6E6459627A8F8E7C6A6F8151
:1007D0008D867F8588848883727092C0C6B4A08B12
:1007E0007E869CA694867D6E6866626B78776A6763
:1007F000646D89A29D7E593B3D4D5F5D616A686570
:100800005E5D565B7785808B9B948079879CA6A6DE
:100810009985736360768990949793898A8B92A364
:100820009B857E797277858679706D71706F727134
:100830007B7E7E8D959C9A8F857C7A7F89959DA500
:10084000A3938474727874727273818D8C8C9DA85A
:10085000A7A19481716B6B645B5A626E726C6D7050
:10086000747C7F7E797A7B79797B7F858278736AE5
:10087000677373707376848A8E969F97877E7C8267
:1008800093968D8A817574746D71737A8389898169
:100890008384878A9290828185878A8A8D979992AC
:1008A00087807D808583848788867D7B7E7C7E8231
:1008B0007C777C8292A6A2999795877972707367EC
:1008C0005553666C6E7E837F8380808889847D74B7
:1008D000606578787A78757D827F79797C7F807E93
:1008E0007E7979828685787B837F7E7A8083838612
:1008F000857B77828985817D75787C7F8484807A09
:100900007577767780817E7C89907E858C86827CE7
:100910007C78797D7E777C74737B7F7C7F90888FF9
:10092000ACDBC6A5AEA58A8E979CAAB7CFBFAFA0F9
:10093000897F8E898170534442483F3B3840363727
:100940003736406F6D4864716A60797F6863716E95
:100950005B57524944606B63666366737C7986AF0C
:10096000C5B4A5A399928C878786859EC6C1A49598
:100970008C8483898A797992A2A3958D8C92968FA3
:1009800093968D929A999795A6A792868179767675
:100990007978849187908E858079766F7477787B6B
:1009A0007B81878C88828986878786807B7C787725
:1009B0007C8382888E898988837D8182767876712E
:1009C0006863696F747473777272756D6F6D737726
:1009D0007D8B8E888B8A8789858584837E79706CF0
:1009E000777C80888786868D8F837D7B76726D6429
:1009F000686F757C888D8D827A766E7477777C814E
:100A00007B797C7975746F737675797A7579828163
:100A1000818489847D7E8482838A8B888588877D92
:100A200073747C86877F8589807F848A8C888C908C
:100A300092908B8B8C9195918A87867A777E86852A
:100A40008486837E76798598A19EA095827C7A7D26
:100A50007B6A636B686168747C787A7D7D7C787D65
:100A6000796B5B55525B666E797A76777A76777AB0
:100A7000827E7A7C7673726E686D727477777B7F14
:100A800084857E7D81898D949A9890827D7D787E03
:100A90008E9295968B7C797976808886868A918DE0
:100AA0008D97938784898E979BA0A49A8B868C8F31
:100AB0008B827A6F666A6F797C7F807D7F85868581
:100AC0008377777E8384808284807D7E81817F8529
:100AD0008F928A817D7D7774787372717576747C5C
:100AE000818780818783858889898985827F7B79D1
:100AF000808684828489858387837D84847E7477DD
:100B00007A7982848383817B7B7F807A7D828484EF
:100B10007B7D7B7E8587837E7F7A7778736E798510
:100B200088837D7E756F747A7E81817E7E7E7B7CFC
:100B300078777B7C807F7E7D80818282807D7B7BDD
:100B4000706E73767979808888837F7E838C8B86BC
:100B50008484827F7C7E7C7E89938E84817A787A7D
:100B60008285838582837F7D7F8792948C7D747557
:100B7000797C8388857A6C646A737A7F82848078D2
:100B80006F71767779767884867F7D73777D7D85C2
:100B90008B8B847B727478808C90857F81868E931A
:100BA0008F8580878B86838486838B8F908E8B86C0
:100BB00083807A7B7B81837C77746F6E6C6A6F76BF
:100BC000787575797F7B7572777E81818591928D3D
:100BD00089847B76787F83807D7C7A7C7D7F84812D
:100BE0008084888A868078787E8487848583827FE3
:100BF0007D7E7E7E7D7B757475787D808182858328
:100C000087898783848D8F8D908F897C716F6E73B8
:100C1000757E878385858586838386898A898D9578
:100C200098938B888D9496938E897D75695F5952C0
:100C300052575B5E6970767E80838687888A84825D
:100C40008281817B77716E727781858079736D7215
:100C50007B7F84868387909C9D968D807F818992FF
:100C60008D898481807E8081807F7B7B776D6B6EB8
:100C7000737A7C8085898885817B7D848A90948F36
:100C8000878081807A74757F8787867F7A74767B88
:100C90007A7D7F7E7E81838181807F7D83939B9619
:100CA0008F8878655D5B5C5D6B7D828080837E7DF7
:100CB00084868A8F8C88898B857B72737C848A8CEE
:100CC0008580807C7877777C838C8F8E88878784FB
:100CD0008581807F7976787D848685817C7A767639
:100CE00080847E7B7F80808484817E7E848B8F8FD6
:100CF0008677717B7F7B747681807E838681797B2A
:100D00007E7E807F7A726D7276727278818A857A41
:100D1000787B828A8B807D7E8084888E928E7E789E
:100D20007F82827E78787A81878C8A868680756FCA
:100D30007B828788898C8786807C7A808682766EA3
:100D4000747F828488877B7880878E8B8583807C84
:100D50008080807F777A7F82848285818288848583
:100D60008583807C7D7D7B7070717375757C7B78ED
:100D7000757B7C787678747178889797948F8A825F
:100D80007E7A7A777B848689807F81868886837C59
:100D90007C7D7C80817A75797B7E84847F7A797D85
:100DA0007F7871757C83898276747C7F7E7F808476
:100DB00083868B8C897C767B7D7C80898A878785FE
:100DC00082838178798186827F807D838C8D8A85FC
:100DD000838180818386848285807877797778772C
:100DE000737980848786837F7D8488888A8C8B8FC3
:100DF000948D828182786D66636973787B7C7D7E59
:100E00007E80848785838386857E716C727C8487EF
:100E100086827F8586796D6E777F7F77787F8687FC
:100E2000878B8B89848284827D7672727174797DDE
:100E30007F7D7A7D8791928C87888B8F908F898038
:100E400076717881837F7E7E7B7A7D87877A6F70EB
:100E5000737A818A92877C7F84838083857E7C7A83
:100E600073757676787A79818784827F7D78787BCE
:100E7000808177737E8E958A7A7575767C81818282
:100E80007C797C80868684868C8C8485838481773B
:100E9000777B8083888A8880797A7F7C76757B7F70
:100EA0007E7E7E7E7E818585847E8184807D777650
:100EB00078808688848184868C8F8D8C8A858079E1
:100EC00072747B7872777B747372737474777C87B7
:100ED000949A958A807E7C7B7B7876787F878277F0
:100EE0007273747B858A8A8786868581817D7C86FC
:100EF0008B8C8B8684817E7E807D7B828B8A807DBD
:100F00007E8282807A7A7C808887827872787C82FE
:100F100086817B7B7F8389837B7A7E7F8184827AD3
:100F20007C7D7A7F83868C8C857F76747A848886B4
:100F3000847E78777978787F8788837F7C7E7E80CF
:100F4000868580766D6E747B807F7E80827D787AE8
:100F50007D8186848486837C7A7D8183848787856E
:100F6000807D7D7A7B828482817D7E85837F7F8385
:100F70008682828685838285848080807E80807957
:100F8000757674757A7E817F7B7C7F817E797777B9
:100F90007674767F84837D7B7C828382837E7C7A79
:100FA000737577787D7E838A8D8C87848283888B26
:100FB0008C8A86837F7D7E818A908C88827F8483E1
:100FC00081888C8A8987878683827C7473777B7912
:100FD000727175787C7F7E7F7F7C7A7E7E7E7E7E5E
:100FE00082817C7D7E7D7875787776787D848C8E25
:100FF0008F9BA7B7C8CBC6B7A498989A938D7E72DB
:1010000076675C605B5A565355546271787E78758A
:101010007C796F6D7C868DAABBA17C645A646A5B07
:101020004F4C525F6B75756F6A6262635C595D63AA
:10103000646E83928B72768E9599948982828E9655
:101040009E9F9799897A85898B897F7B7A7D7F7826
:1010500071747470747A8082808795A0A8A69E931C
:101060008784878A8C887F777C939D93857B7F8B11
:1010700093928B8D98A49E94A0A9ABB7CCD8BF9B1C
:101080008E909EAEA7959293969C8C7875737F9068
:101090008E8467423D4341434343444A5665695603
:1010A0004E4B35262C3034638F848698948E99A1CC
:1010B0007C687B67595A4F60757D786F756F5C529D
:1010C000505862654E312B293446464C5964726D36
:1010D0006D7E91A8AAA0A8BAC3A1797C92C7F7F3A4
:1010E000F5FCDB9D6C615D69755C5A7591B6C2B5A6
:1010F000AFB5B3A3ACB7A8A6AFBFD9D8A35F4149DA
:101100005C60525672847263768597A282605251F7
:101110004F3D31292D4045495C6C7082A3B3A98EA7
:10112000786C6B7C7F6B56525F686152536588AAFE
:10113000A99A9AA1A8B9C4AD9B9C9B97919CA29D8A
:10114000ACBAD4E3D4CFBFBEC4986D6663584E66C4
:101150008798A9BBC8D2CCB9AFBCC9D9DFBFA3ABF4
:10116000A88D77665B616A5F5E6A6D767357311B27
:10117000180D0B263954706E6854424242424A524E
:101180004A3E3D3C3E3F393C414540383E4B6988F4
:101190008B8C836B68788FA4B2B4ABAFC0C9C5CB5E
:1011A000D6DBD7D1B69E9894907E7B7B8284859641
:1011B000A19D999EA6AAA2A8B1B1ABA59C9FADAED8
:1011C000AAABA098998A78695845382D33414F5C6D
:1011D00075808198A0A3A29689776B6D706F6B5E06
:1011E00045454A425A7B8D8E8B918F8B84858F9695
:1011F000977E6B64524A4B5157636A666C66575BC5
:1012000066656A766D6E75828A909DA0A0A4A9938A
:101210008478686A6F70726A58575B575A574A44A5
:101220004D4F546B686B899CA0A5A9ACB8BAAEAF02
:10123000A89E9FAAAB9DA0A2A1979389898881842B
:10124000898F8B82727B7E776F707D94A7AFB4BFDE
:10125000CDC6C1B0A8A8A19EA9B4B8A898897F7B23
:1012600072726A6A6B707170778382837F7C8890F8
:1012700094929B96928A848680848A93A2A6A1A047
:10128000A4998491968475656D878C837C85847B15
:1012900082706772738A94827277969F8C898D812F
:1012A0007F7F8170564D331F232729383F3B3B4AB0
:1012B000636B71828BA4ABA2B1B1ABA288706D6578
:1012C0005D627172675D544946616D6762543A2B85
:1012D000302E181A2636494F567090B0CAC9BDAF85
:1012E000B5AEA8997D76818B8EB2D4E9F4F3EFEC9C
:1012F000EBE7D4C9B99E9A866A65493436394556B2
:10130000605764696A7787827A7C64422830404EED
:1013100042281C202F495142322324262B32404997
:10132000587285847D7474869198A29E948C93984B
:10133000949C96989B9BA4A9B5BEC0BCB3BEC3B9F0
:10134000C4C2B2C1CAC5B3A4A19A9781798A9EA129
:10135000968A8C979BA59FAEB1A69E9EA5A19F98AD
:101360008F878E88838D9FAAA6A498888B9CA1AE18
:10137000B8B4AB9C8A869186797667545559535593
:101380005762717269615C555F6C6F666965544B39
:101390005257565A585B6E8191969488818B8583FB
:1013A00089969F93877B6B5F595F73878578768774
:1013B0008E96A9A4AAAEAAA18F7A7377747C8A8E1E
:1013C0007C74747D80828A8585898883827D7A7425
:1013D0006D676B6C667280828997957F787F797074
:1013E00071777A6E6B7E85797075766C57524C503A
:1013F0004C444C5A6769767981878E8F94A1978780
:1014000076756E6A7173798D8D909A98979099A57B
:10141000ABADACAA938B959FA0A4A48E84827F6F62
:10142000615C5E6F706B5E5A5D5C5B5F655B5147D4
:10143000424C5B4D50655942414C46505D5C5E5993
:10144000687D8F958D8B8E887F8C9A9C969A8778F5
:1014500074809EA3A1A5A1918E8D877A72717C8ADA
:10146000969995877B8489949F9CABBDD4E5D6BF24
:10147000AEA78E7D7C847F899B969CA29F8F807C6B
:101480007D828994958F8B96AAA7ABC4DEE0D2BEED
:10149000AB977C58566777868A8E8D8979717B6C7D
:1014A0005A62686E82949596837A7779786B7265C2
:1014B0004E4D4E4D5F6C6D6B7170676D777D695EE3
:1014C00068676C71766C696E746D62645953556DA2
:1014D00082898E8D868E9FA6A6A18C7D75708DA823
:1014E000BAC7D1F1F9F2F0F3F1E1CFC2B69E9C8810
:1014F0008D9D896552423D606972715C5B8389A5EF
:10150000F4F7F0E3B99B4F0E0E160B020B191913EB
:101510000B0E110F110F141A171519252007080AA1
:101520000F0F110D080100000C2C2539667E92C3A7
:10153000D7E5E0C3B6CFEEEEECE9DBD7F6F6F1ED9A
:10154000EAD4BEC6E6F3EAF4F0F6EEE6F1FFFCEB11
:10155000EAEDE9EBE5D2DBCEBABAB8C3B68F909923
:10156000887895A78E94A3968797B2DAE7D5A99441
:101570009FA3ABB5C7B794838072634235352D3ACC
:1015800045403E342B2C2D322D4048414D5554556D
:101590005D6F747273705E4F3E24161E2636485679
:1015A00069727F7D7683A0A59C8F989E9D96909969
:1015B000989B8981898E8792B2B7A9887C79757B3F
:1015C00077717A877058534B423B4656586264672E
:1015D0006C635B50556E93897987949CA2AC9D9304
:1015E000847775776B61706F747E8293A2AEB0B1B1
:1015F000B3ACA8ADC5BFB7B3A68F8289868C867BF6
:101600007871797C7C7B788692AEB2B3B3AAA693CC
:101610008A83848C907A6B696C6D7A7F7273696F40
:10162000767C8E8D828786858E90928E9089818839
:101630007E7A766D6A74888B7A6C62636B717D8A50
:101640009D9C8B8377717C6B696F626F777F8C98C1
:10165000856E686568686C6C6B686363666B727DC9
:101660007C787987896C58566B7C81858E85717200
:101670007D7F8E9A90959496878A979DA99EA39D2B
:10168000999FA0A5A896653B2935403C4654584FE4
:10169000494342444A5D676C685B56594E5E7D7AA9
:1016A0006A66706F615C676865676E7A7C74758363
:1016B00089756A67636061778A908FA2B4AEB5BDA1
:1016C000BFBABABABAC9C1C9CDD2D3B79887837BDA
:1016D0008086847F787B7A7C76698B9B97988E84D2
:1016E00090A19FA8AC9D8E97ADAF89696E746A6C0E
:1016F000767C7B7C858E918389919DA0AAC2A07CFB
:10170000695247322A465C636683917F919999AE0C
:10171000BDB29E865140493A2D29190B150B0E2456
:101720002443757E6964563C311208130A20343212
:10173000362F34495F6E696C6E70879EAFA58683C5
:101740008CA0A9B3C5BBBDC7C2C8C5CFF7F7FAED1A
:10175000BAAFA9A0A1A6A09DBBE3F4F5F4FDEEAE3F
:10176000897F604F627C94ADC7C3A89A9894817CAE
:101770006F615457605C7C8F8A96A6A69A887A859A
:10178000929183766B5E565A70767C73626A625B66
:10179000676D79979B897E806E667585795F6272C9
:1017A000807B7576787D8893998B746D819B9B8CFB
:1017B00091989B9796978E918C99A69B8779708527
:1017C000ACC6CDCFCAC5D0E3E1C3B1A0A0887C7DB3
:1017D00087928F89878A736F727674818079889CEB
:1017E00097897D736656442C323D453E39354148D4
:1017F000393D4C4445493F30273741555E63585386
:10180000515042312C2C464F555A62717C86827859
:10181000807D88A2A994908E8D8F7E7A7B8996A6F2
:10182000AFB4A694949BA8A38D838A909392877A51
:101830007A7D836E6164697B99C6DCE8DBC4BCC0D9
:10184000D7CCA68E7B6F716D768A9090908F8D929B
:101850008C807D7A96A69CA4A6A092785E534D5269
:101860005E636C6C66666060615651463434424813
:101870005B6A636775868881878F90949581708491
:101880008F8D949EA8B5BDBEB79D8D8C897D6F66EA
:1018900067585E6E60516B93ABC1C0BCB3A392AD91
:1018A000BAA194855D425A4C343C5350474652632A
:1018B00073807D7C6954484E6B725A3C2E4753515D
:1018C0005153595E64666F848F908A787C88A4B681
:1018D000B9AA9896A0ADAA9E8D96A7B4B3A5AABFA3
:1018E000CFC9C4C5B79D9DB8BCB5A8959BB4D1DC84
:1018F000DEDBCEB79A94917477797482909C95844C
:1019000069656A595D6057565A707A7B7E786D6258
:101910006360536076807B686A69647380808A8FB5
:1019200093816969737A776E697780797C8A868119
:10193000716C6F6A6F7D949A8F939990948F868162
:10194000757988989F9C978C82837B7064615644DC
:101950004054757F84847B7075818B7F7A7E767925
:10196000898F80807F84817B7D777077857C777F8E
:101970007C777B78706359525C6863647B8F939348
:10198000959799A9AEAB9A837B73706F68667579EA
:101990007F8884837669605F687C847D7B7A7679D2
:1019A00076685B5A5D61776C65677176878D7E6C52
:1019B0005C6771827D877E7783959A9290837F7E24
:1019C00094A6A8A0989593969C9D9B9C9B9FADC424
:1019D000CBBFB2AAAFB4A3816E6C68777B7F8684DD
:1019E000858F8D7F7F7D7C7E7F817B7470615E5F64
:1019F0006C7676786661637D91877A60606F655CEE
:101A00005F60697B78686A6565778694938F838663
:101A1000776E716F7A859C9881685E6878817F693E
:101A20006787897E6D6566768D8C6A534B4F5F6BD9
:101A3000766F676A78898D898A7763607B8D8E96E9
:101A40007D6E6F6F6D6D7D899EB2B7AA999FAEB6A0
:101A5000B6BFBCB7AFAEC2CECFD4DED7CCCFE2CF0D
:101A6000BCB7ADACACB8B398724B2F2322281F166D
:101A700012122440656A71787B7B6B6A7EA3AFC1CA
:101A8000CCC8B09B9C8C89816952403230271E1291
:101A90000A06000524374A626D8A8B97A0A7A6A381
:101AA000AFAC997E716F6E6A6D7486A1D2EBF3E96B
:101AB000CBBFCCE0D9C2A7918882755A4A556A78C3
:101AC0006F67626F7E8C8A807F899C8F765C484FBF
:101AD0005C61685A544037393C3A406688A0A4BAE1
:101AE000BAA08D87888B8A8D8F8B939F9C867F7BF6
:101AF000685D53546270737378819AA6AAA8ACB6D5
:101B0000C0C1B6A49AA4B0BAC3B7A384798E989C76
:101B100096998D898D94979C9B887D66627373736B
:101B20006C6771746F707E919E96918D7E797B73D8
:101B30006F5A524E343538424C647179929D998B6C
:101B4000949FAFAE968D7B635865808D7062737F76
:101B5000929DB7D5E1DCD2E1E4C9A393A7D1D9B571
:101B6000AE9F8E8B745A4D462A1A355376807F78F5
:101B70005A5C504B474236140D0405171D1E1B3B83
:101B80006B6667735D3A2D33394433100D100C0DBD
:101B90000C091B2F2D3B555865858B97A3A0ACB125
:101BA000ADACA6AEB0BBC7C0BAA1A0ACABA19EAF56
:101BB000AFAAAAB1C0D2D6C5C9D8D8D2CBD7EBF07C
:101BC000EBB4826C5D5A687985979996838992996E
:101BD000A7ACAE9F98877F8C97A5B1CDD8C8B8A386
:101BE000A7A1876A5A523C4258636160675B4E51B5
:101BF000667A807B6D726E768C7D7D7F7D7260559E
:101C00005B7468575D7E867873796E4D4B55626361
:101C10006382958A8884807074756E74757B899FE1
:101C2000B2B0A3AFA6837273706461625D61707FAE
:101C30008A8E8E918484928C7E76807B72645D64C1
:101C40006158554E50657673809292979AA79E9DE3
:101C5000999290999E918A7773725F4C4A473E475A
:101C60006972707B808B929093928B948982837E31
:101C70008E938F8E918473707F816D69727B889C47
:101C8000B1B9AA9C928E898F927F6B626E7B84968B
:101C9000B6AD948D8B908A7F7877818C7F76828F9A
:101CA000866660585F6E6A7082888995989FA0A248
:101CB0009B87705F5149505A646C6D6B68676B60AD
:101CC0005E7091989A94847A717E898989979F9A97
:101CD0007C798E908C8278705F5D798C9997968BE9
:101CE00084929FA28B82836F63595352504F464A0E
:101CF00053596D7B6046303343536761635C535186
:101D00005564676C848577707574747A79797576A3
:101D10008E9C999D8A867C7E99A9AC9A847B766EEE
:101D20008B9C8771666882B3D0D3C8BAAD9C98A2E9
:101D3000ACBBAE959A897B8080706F79696888A703
:101D4000A29591959BA2967C7577776976889BA8DA
:101D5000969C8B7B6B70B3D6F0FEFBFFF4F4F9F12D
:101D6000C180562F201E271A0C0C0C0C10090B12C8
:101D70000B16131512193A586387AAA5B9B09A8B96
:101D80007F6C688B9CACB7C09D7152351F0E0611DD
:101D900047473A3B4E8AD0E7E7F2F6F3E6E5E6DB63
:101DA000D0BCB4BD9C755C524B443E3848718FAC7E
:101DB000C3CCE1F0DFA7898064523B272D21231E8D
:101DC00025465E6F6E677E9191A59E89695A585B24
:101DD0005E59585D5F6067576469706F6B78839870
:101DE000A0A5B4C7CDC9B2AAA7A5A5A5AEA19F9B22
:101DF000868385858C8F888E9A98919BA4ABB0A999
:101E00009A838D8E8081828986748198908A818060
:101E10007A7984918D776C626676828E878498A8B1
:101E2000A49B949D9E908F8678787C829991786C03
:101E300074816B666F6E82776B5D5145394E536866
:101E4000868F726D736F7671726F6767656062708F
:101E5000776B6871715F5D57535254575360645488
:101E60004D59626261767D7E86878F98A5AAB9BE3C
:101E7000AEA394939091938F8F817C7C86959AA545
:101E8000ACB0A388807C6C5B515957565B6D6A542B
:101E900052434151646C686B6A6E7C7F7E767D85AF
:101EA0008675727E766D6C756A6F7A8FAC9E8F9A2E
:101EB000987D635E5D57697A7B7B6E656D6C6B7038
:101EC000858E8A8A777A766D878D7B6F636C7D804D
:101ED0008B979E9FA9ADB0BBB19B877E7F706E85AF
:101EE00089775D636B728A8E8386A1B4BAC3C3AFF0
:101EF000A6917B94A0A0A09B9E948E8B7871665136
:101F00005765818999ADB4BBA79D9A918D888178D9
:101F1000656A6C6E6E6B6566788672596F787076DE
:101F2000715B4D474A505E72878E806F708EA8B08D
:101F3000B7B8947D82879A9F979384766C60647615
:101F400073615C6C63516272704A395C72716E6B62
:101F50006A728C9AA7A8AAAE9A9A9D95898C8E844B
:101F60008296999B9D919495A6B3B6B7AD96909E97
:101F7000A6A1907F705540393440515751422F38B7
:101F80004756677383899091A0C0D6E8F6DDAE8A84
:101F900076787B7668625B4C4C545353585856584D
:101FA0006F829F936C6261808FA5B3A9958FACAF50
:101FB000ACAFB8B59E958F83655D6467707C7D73AB
:101FC0007979807B6C605756545A667B847E788121
:101FD0007D737A7E79737E7C76747A878B7F7E962A
:101FE0009493948F8D79787E7B7E76655657656F56
:101FF000747C8C89837A878F7A6F6D7375706F7537
:10200000787567645D56595650444A5D656C7F8BA0
:10201000868DAEB6B0A0969EA29E90868481817475
:10202000605C54565961605554585F657E7E767C7D
:10203000939A9397A1A598939E99847A7D8E8C7F8D
:102040007987877A7E8E9A91907F7E8C99AEAE9CAE
:10205000989C97999891888B95A3A9A59A8D7F6B49
:10206000503A445D727967565A68787F7B77797702
:102070008490938E96A7A893837F6B6B737E837DEA
:10208000695C747F908C7B7F7D85837E72666A6BD2
:102090007A8B766B747A878C8B7D8490826F808E3E
:1020A00087928C888B81797F86868B9B9A9CA0A94E
:1020B000ADBAAF92877C7F72798F9A89797983885C
:1020C0007068757A7F8C8C8E888B979B8E7F8491BD
:1020D0009B908C95958FA3AFABA191918A7663501D
:1020E0003E506A7B85837C7E969C8673767F818C4E
:1020F0008F8392A4A39085929A998D9DB3B19B975B
:10210000A2A3A299968A725D54403741423D373965
:10211000433A3D5970878B94979BA0ABA99A9990AD
:10212000887B5D41443D42525B6869615C5959530B
:10213000505C666D666258627D87A1B7AF987C6F10
:102140007E8CA1A6A2A494846D5C55505F6B656BD8
:102150006C726E768B8E8A877E6B6062778DB1CF64
:10216000C8BAB09D937A5F47465C71898583828146
:102170009ABFB7BEBB8F7967655F606453585C5484
:102180006564442E3E4F51636766667AA8BCB0B75B
:10219000C8B7BADFDBB6ADA09E9B938F816E676236
:1021A0005B585D635A545C73768AA4AB9F9BA28C88
:1021B00072717B7A899A9089755C554C636F7781CF
:1021C000878A94A09483756F6E787982848E8C86CA
:1021D0008A7B6E6B655650586F766E778A9EABAD74
:1021E000B0ADA08E82736865656B758A9090918999
:1021F000818B9189877978829193817F7867686DE7
:102200007C8386909BA3A2A7917F73635C76878D66
:102210008D898D8E8D86847B735D637177838884D1
:10222000767F8A889397999E958B8F8C89909CABAB
:10223000ADA299928A8E807974737173776D6F7085
:102240007064686E7E91919097A3A099918E8D8C09
:10225000908B818180817B7B8A8E958C796C5E5599
:102260005E6F73777B74707672676D747D8F8F810C
:102270007F87959D9C9A8D7A6C6665727F82888631
:102280008B96A0A4A1968F908F858071636B767BCF
:102290008387857C72767B7B7672687A84807F798F
:1022A0007B8387888A85848C896A605C5A645849F4
:1022B00055647782787471787D7D7F848A8E837F80
:1022C000776B748389898488928B7F778092978CCF
:1022D000857870635C6B82A2B1B1A59A867C8C9183
:1022E0008B8B898A96A19E9DA8BDCFCFC4B6A7AF80
:1022F000B19A97856E64706E7798A0B7C1B6AC91AD
:10230000779DB3A299875C6B82563D4B5B526164AB
:1023100048240F101F3434211E24243143392F3C0C
:102320003230343A464B55514F595D6A756B67618F
:1023300061676F75676787AECCC6ADA4989CA8AA85
:10234000A8AEA9A5A395929CABB1BDBFBBB1AFA8E8
:10235000A4AEACA6B3BABAC1C6B48F888880777D64
:1023600072788EABC9C3BAAF9D8F85868E939EA4BB
:10237000A2867B7B8079604F495D6464636C76855F
:10238000897D7A614C576E969C765F687C78685C34
:1023900060697881684A4C6B73746A5F5E617770BC
:1023A000747D83848383868E93A2ABA2867685A573
:1023B000AE9F8E94938986897D7B8D9C978787922B
:1023C000A6B5D0C5B3A8AEC8E0D7B3A09E9F9A96D5
:1023D0008D8A79755D443C38485B6A765231352D7B
:1023E0002D3044596F7D778CAE9E8E969699A5A41C
:1023F0008F918E80786B5441403B3E4D535D6D7A9A
:10240000939B9A928B908689827470888E837C6C61
:102410005A5A6B60667F8A8EA3AAADB4BDC1C0B99B
:102420009C929F99847F796E5648463826191A1CCB
:10243000090204080614213D7194B7BCBFB5C1DF81
:10244000EDF5F8EED6C6B19B836F604F40240706CA
:1024500007090C100E1D445C5D5B7093BDDEF1F648
:10246000FCF9F5F4F3F6F1F0E4C8A08E80613721B1
:102470002622242C240F152B41536185937C90B187
:10248000B4B29C8C86797E8A8988767175799184BC
:102490006E675B657581979F90847C7F7F757259AD
:1024A00050555462564E5D4F4A58799699A2ACA940
:1024B0009D96847C8197A7A4AEAAA8A79DA3B1B737
:1024C000B0BAAF8E93A0A99A8B8582837A766B6F10
:1024D000798079757874767978767A808A8D847047
:1024E0006A6D624D4D606A6D777B757782888A9CD4
:1024F0008F818788939493928E8473615E554E5D2D
:102500006158544F5C59535B515D748A919099990D
:102510009795878C8F8D978D7F848B878777736650
:102520006B7360636166695C6365749D9C84879A64
:10253000967D6D7B818C978C8F99A3A7A3867886D7
:1025400087909793817482919083695E5F56656FDF
:10255000695E6268748E9698999FA1A8A9A299A4B1
:10256000B0A49B9796867370767B77726A635F5B85
:1025700069738EA49B968E9183798D9993867A86C2
:102580009C8E7F84878C82747C8475676B6B625DA4
:10259000584F56747B7272707D858A968E8B877CBD
:1025A0007864584C454E4E545B62666F736A65673B
:1025B00073748082747B848D9CA6AEBBAC92868241
:1025C00087909A98A0B1A7989491969DA0998B888E
:1025D0009A9893969F9B90A8B7BDCECCC3BFADA051
:1025E00090837B766B76836E6B6B6E6C6A695D4DE8
:1025F0004742424D5C5B4B4D484A526259494E4CF2
:102600004F535F6768617180827860535C7B8C9008
:10261000856651565A6A6A696C5B5B67768B8E84F5
:1026200088939697A4A29A9B9C9399ACB4AC9F9CD8
:102630009DA6A89E82707A7E8F9D9A968B7A645C06
:102640006B82909B918F9C9FA499969396A2A2983F
:10265000867776837E89968E8A908C7E74655550B7
:1026600050586167727374706472808DA6AEB2A2A6
:1026700080767A766D64656B635B6274837C777356
:102680007185908D887F6B4A476B899E9E9E9E8E3A
:102690007963544E606D6F6C737E81848297A595CB
:1026A00087959E8974706968757086A0A1A79898AF
:1026B000978D7D727C7D7C7874798A9B9A8C8179E8
:1026C000777B797C767C8983969E9AA5A2A3A39C2E
:1026D0009A90898E9091918474787E7C787C7775BD
:1026E000848C8A7F74727B86827C7C77817A778502
:1026F000888D999C87786E6D788184887B74767BD1
:1027000084807D7669676F71808F8C88847F7B730E
:1027100068646E7E8581786D6C665B62656F7971C9
:102720006E74808582817A818683828489898F8490
:102730007C8A8F8E8E8F9388888E9191807B828504
:102740008D8B7C6F757D8696A6A4816E7384848E36
:1027500099928D8F928676788D9A916F6D84826A28
:102760006F766E665D687A7F797171828071727F33
:1027700077696872776D6D7371797E726760607268
:102780007A817C727C7575777D756F6B6B807874E0
:102790006A595B6E7D838F8E8C8B8A96A3AA9B7EF3
:1027A0007168586364595E65716960666C778A8C7C
:1027B0008992958A898B888A95A5B9CBC1BAAF9D34
:1027C00097978F7E6A57585E67716A6C77828385A8
:1027D00081818A818595A8B1B8BB9F8181858175EA
:1027E000727370808684817675828282857C777030
:1027F000767A747A848D8492A5ABA78B73575B70BD
:102800006F6D776F6D7D87898B98A19985807A7CB4
:1028100079848E888986725A55606262797672767A
:10282000726F7070718699A5A89E94979D918990FA
:10283000939BABB9BEAA908880736360665F536454
:1028400075766F656C7070726C66655E708386837A
:10285000848D929598A8B2B0A79B7F685F697A83B0
:1028600077695D546C787F745A576063717A6E66CD
:102870006773748283788484737D8F93949A9A8526
:1028800071627277767A7F8B827770758C9A9D945D
:10289000858684847D7F8B92A9B8B094887E6D6E86
:1028A00076828C8E8B7C767780837F74636F858F46
:1028B0008E8F979FA1A8A49793867E817D7B8A9314
:1028C0008E807973656C7A7C8082818E8E7C6F625B
:1028D00064767D808E8E807670777C7E77777D7B48
:1028E000888D8E918D877875767E786F81868983C5
:1028F0008384716A6F7B786F7480827C7C89A0AAE4
:10290000A6A1A1A299826C56435376888A8B8E8F9A
:102910008F8987827B706C6E707A8483777C868BDC
:10292000999D958E807A717C878684736E7880817C
:102930008285857A7B7D7D7F7B7978736E6B7180F4
:102940007874767B83857D7C88887E7E7E746B73CD
:10295000787F877667666A737A797C84887A6E78FE
:1029600082776F665F66758692989CAAA4958A792D
:10297000625E5C58646B6F777E888E85898A877FFC
:10298000787273797E807C7F8F989AA2A3A8A69292
:1029900076828D81716C746F757A80848A88818665
:1029A0008A80756F6E6E6F75686A7E888680838791
:1029B0008B848782777979818482847D7471767D36
:1029C0007A7E7F7C7D8890938B7979838889867BDA
:1029D00074757480999C958983848981706B6B75FB
:1029E000797D79788183796E6B6A74858F909694FE
:1029F00083737C7F7A797D8D9187878D92938E8981
:102A0000808075686976888D83767376757A7B7E2B
:102A10008D98A9ADACADA19B927C676F878C8E869B
:102A2000756D6C6C6E6C6C707E99A3A2989C949280
:102A3000918D929094939587878B827674726F7B39
:102A4000736D716F64647E918989896F5E575B6570
:102A5000676873797F887D656476787984867A7A09
:102A6000838B89898F8F8B837E7E7B726862626E97
:102A700079726A6C6D666656434856596272828DE9
:102A8000827E7D8391908B92A9AC9C886F6F7F8FA3
:102A9000998C858B96A2998869534C4B4D4B5D78E8
:102AA0008F9F9B9EA39A978F888A9DA399919CAD97
:102AB000B3AB94888888837D6D6D716E6F747B81F4
:102AC0008A8479797C879F9F9887747873777F8CC5
:102AD000A0A8AAADA89C8A6C505864616B6D7686DC
:102AE00095917E6766787D7A75695E636D797C8184
:102AF000898A7D7671728B97938068696B6E788016
:102B00007A798E9B9178604A3C475E6976776C63F0
:102B10006F8084817C8A96988B74737D8BA4AAAC19
:102B2000B7A691806E7390AA9C79615C7493A6A7F6
:102B30009F8F867D829B968E7F777B7F87898F9004
:102B4000867B69708087988970585A5F6A7D808A11
:102B50008F8C7F7B888E95A1A2977B82887F7E93C6
:102B6000BAC2BDAFA4979AA6AA9272604236313B10
:102B700042413E2D2334454C627A8F918A868D895D
:102B800081787A858E9E978B8181837F766F6D6643
:102B90005A5A5D5E584E4E55758D9A9D959A969FE0
:102BA000ABACB0B0ABAEAAAAA79C9CA1ABACA597AE
:102BB0008E918F8783715E63706867656A756D70CB
:102BC0006E6D6B757C79809285707777655D6769CE
:102BD0006762697272778999A09083705F5F63768C
:102BE000777471717B7D7A7C83868175777F837F33
:102BF0007C777C89949B9495A1ABA49C95908B84C5
:102C00007C8E94826A5B61656C6E7575747C7C7178
:102C1000777A7E8A949689817A82979E9EA1A5A2D0
:102C2000948786929E9D866E63677873615050622A
:102C3000626E7B77736F727D858E958F87889CAE71
:102C4000B5AB9A89868A8D82818A84898988909693
:102C50009D9A8C7F80888476646367696F5C4B5132
:102C60006470767B7F848281797C726E838A8C8BA0
:102C700094A7A89F90867B6E6D69696A6963646496
:102C8000595C66798B9090949B907A76747F908D46
:102C900087838785706E757E7D767278857E7B777B
:102CA0007175828F867C77768788858E857170793D
:102CB000868F867B7E92948E8979798585706870FF
:102CC00079818686807D7B7B76707375767A7E8649
:102CD0008D90888A88807D7A858A7F7B797A8387C0
:102CE000898390948D8A7E716C737977747F8B8BD6
:102CF0007F82898D92969D968680848A8E8E92A3FD
:102D0000B0B0ABA08C8A948C7568706F67675F5B9E
:102D100061666965635B5B70808595948A91979D18
:102D2000A5A59E97897E716059585B5D646B6C7E2A
:102D30008C9594776567625150687E8083878F9504
:102D400089838995A39C836A57514F545F6E7C7722
:102D500076787A7F7A8790878985838A908B756D5C
:102D60006F6C74808489888C91939E9F98959188CC
:102D70007B6C6A757C83858178747D8597A5A39823
:102D8000918C9AA89D918574665F666C6C7E8F8F1E
:102D900086827A726F686962657C929B9592938C49
:102DA000817F8DA1AFAC9B886E5F606A75848F88D0
:102DB00079797D7F74656C737574797E7E7E889871
:102DC000A19B948E88847D7C757B8B918D8A88886D
:102DD00086858A81776C686C6E727F91A3A3958BD0
:102DE0007F797B74666264625E5A585D6571748235
:102DF0009895867C7E8483797170717F99A59F9365
:102E00008D857566656B64626A6D6764676F7B82CA
:102E10007F84837A8392A09D8C838380868E8D7C31
:102E2000767C7B8186867667636C7A8185818687EE
:102E3000817B76767F8DA0ADA08F8A8B99A2A4A886
:102E40009E88777F89877D787774777A78767978A6
:102E5000736C6B6F73777774696979899496979FB0
:102E6000A59B8E898681786960676F7074797F828F
:102E7000868B8374645B63727678777A7C81897DD4
:102E8000787A889CAAB2A597826B718388877D7AAD
:102E900075757A7578726D73787E82889099918451
:102EA0007C7F867F8082898C8D84828584858176F3
:102EB000686A6F776F6B6E7372686A73777C8686E9
:102EC0008473748488766B747785857B7D8589911E
:102ED000958F83828E98958E8F85787675757973A8
:102EE0006F6A646B727578848C8A8B8A8B8E8F8AFA
:102EF000817F817C8285858D918B87857B797B7BAA
:102F00007E81818B90887E756F71757277879799B6
:102F10008C8A8D8E8C8B908B888E938F8879707D28
:102F2000817A72747D838D989188807E79717070BA
:102F30007D7F83888F90837C7976757C786F6B71C9
:102F40007A7C7A737072737878788689807F7F7FD5
:102F500082888C8B827B7D81807E78777C7B848667
:102F6000838C908B827775777774767C85979E902B
:102F70007F76746F6F76757B848D9487736D717BAC
:102F80007E7F7C6D6A737E8884828485837A777E77
:102F90008D92897E78787F8380858888898D8C85DD
:102FA0007874808987828385888987827F868A8BE7
:102FB0008E88837F7D859397918C8E9291999C8347
:102FC0006E6B676D6F6C707473767267666B717A17
:102FD000847C7C7E7E7E7D878A8B878686817764F3
:102FE000656A666E797A797C87938C8A84776C6659
:102FF0007273727A7F7C7A706B6C697680868C8D46
:1030000088847E6D6E6F7276818C898F887E7F7FDB
:103010007D848A7B737879796F6560616E807C6F5F
:10302000737A7D818176747674808E92999687808A
:103030007B7A7D7C797C848A85796D727F847C75CE
:103040007F81888E8D8C9095918E89888C8D8F8DC7
:10305000887F7370747C82898A888A8E958F868334
:10306000808589888C898584818683797E82828423
:103070008B8C8988838581828991938A837F858BD4
:103080008B817D84898A86807D7E8594998E817CE2
:10309000797475797C848686827F7D848F867C7F37
:1030A00085807F848B8C817873716F747A8385843B
:1030B00086837D78777173757C878C8E847D797C2F
:1030C0007F71636069767C7E7F8C999B978D827C13
:1030D0007B80838181817E776A616777828F94812B
:1030E000716F7077848C84776E67769097897E8411
:1030F000918A726B6C728391877C767984888883DD
:10310000807B7E8181868981746F737C898E8D7AC4
:103110006F716D6B6B6D6C767F83858287897D7532
:10312000808D8B847B75706C6D6B737C82837E7CF1
:103130007E787A8384807A726B69667388939B9DAC
:103140009991867B70727D868C8D898175727C8465
:103150008D9091999A938B8C939493908D8B877B80
:1031600071706F696B7B827F7E7F838B939798985A
:103170008E84838C8E7E6F6D777B7D8181838B8D3A
:103180008888877A73726E69656765666E7A7B7BFD
:103190007D818C8E8C87817E776E6B7784888A9018
:1031A0008E847C7B7C777678757477808786838441
:1031B0007C7473737575787580908E85848782743E
:1031C0006B65676D6E75818C8D8C837E7C7D7E8258
:1031D00084818788888F9195989499A09F99968EDD
:1031E00084736865636972797C7A76726D77746BC3
:1031F000646473899998989992887E7F869699914C
:10320000887F7D7B776D70767C81786E706F6E784D
:10321000827C757875767F8687867F868C87939586
:103220008B80797C8A9B9889818A90887E7770725E
:10323000736C71727F8181887E736C707781858DEC
:103240008F8E9EAAA2948475757C7C796D6E706D4C
:103250007177746D7A847C74787E7F83867F7F88B3
:103260009FAB988E8F989F9586756F5D4954697452
:10327000757B818390A29E856A5A606D7A7C788185
:103280007D717173737779777F7D706D7E96A1A75D
:10329000A8A6A59D9D937A6B6162697376685B5958
:1032A0006261677679827F7684918E878787858C45
:1032B0008B7D7B84878D93999E978E887E7C7F8182
:1032C000827E7A808E999786807E7B7F7A757370F6
:1032D0007289978A888E8C867F777C8280807E7DBB
:1032E0007F838E9990808084827B808E978C756E90
:1032F000716D6D70757D84837775788089847F7D2D
:1033000079797975767B818B93908F939B9A92894B
:10331000807E7264647380807C7774777C898E850C
:103320007D716E7A8486807F7E82817A6F666F7A05
:103330007A73726E7173748084878893938D918A87
:103340008783868175777D818077738090979EA52E
:10335000A59F989084776A69645B5E6463686D6A10
:103360006F7C8B8580878883818A8D9096948F87E8
:10337000827B7A7E7E7161687C867B7170767976DD
:103380007D746E6E70767B8B8F919C9C9391918EE9
:1033900085817D74757C83817768636970797879BC
:1033A000818B8E8A867D808F999481757A80807CCE
:1033B0007A798288878685755B555E656466717EDD
:1033C000898B83879091908D8A8989827A73848D85
:1033D0008C8B878B85888A7F716F767A7D838E91BF
:1033E000908A899494919087796F6D6B686B7379EB
:1033F00083898D999E9E9A8876737B7B7878757881
:103400007D8289888A969A99958A7D7A73696C718A
:10341000747878767C88908C8A8885878C88868C6E
:103420008B8A8582827D797473787879797A7B7AD0
:10343000766F70757675726F6A6C69686B6D787C83
:10344000827F777F837D797774747C817C78746FD9
:103450006C6B686665696C6D6F716F78878D8D8C2C
:103460008F8984797068646E78787178858C8784A8
:103470008886807B78767177757476797E838D8E79
:1034800088797075838480777685888E999C9FA6CD
:10349000A49B989E9A908886796D6B6F77818E85B4
:1034A000817E797D8787858885817D89979B9694A4
:1034B000989C9C908179776E67686C717B868E9200
:1034C000958E7D797C7A7778746C71777C7C7B7C47
:1034D0007E85848386887F7C7D7C7B7F84868682D4
:1034E0007B77828A949B9F948480797F898E97A42E
:1034F000A2999A9B8E8A888078767B7A757A87954E
:10350000A29F9491989FA6A0968E86888A918C8B74
:103510008E8B93968679787A7E7C796F6A767978C5
:1035200080859093887E77787C79797369687075E7
:103530007172757574705D565E6C7979868F8C8743
:1035400094A5A19A989184737074787B7C828990F9
:1035500095A2B2BBBCB5ADB0B0A8A39C9B9FA09CEC
:10356000907E655A5C59565251595A4C40372D2B12
:10357000363B45574A35282525272E29190B091290
:1035800010090E20344347464F52575E6D7B8191A0
:10359000A7B6BDBAB4AC9D9084838991969DADB217
:1035A000ABA39B97A2AFB2ACADB4B0A89B929394DF
:1035B0009995908F8F827473757C86919B9386808A
:1035C000848E828084868D8B7F76838887898877B6
:1035D000716F6E737166646F7477706766717883EC
:1035E0008E9197A3A194949296A4A5A19A969D9A40
:1035F0009A9995939CA2999AA3ABB0B1B6B3A299AC
:10360000A4B1AEA6A09EA5ADA9A2A7ACA8A29E9665
:103610008F8D8B857E7B7C8085837F7D7C7B7476A4
:1036200077726C6360636C727371767D777270749D
:10363000747171737781807981868381827C756EE4
:103640007071717A8083807E848D9D999498949313
:10365000959182756C65645E56596064645C5555DD
:103660005D60594837384A55595F6365717F8FA24D
:10367000AFBEC1BFC0BEB2A59E8A716565646772E8
:103680006B605E5E5A5A5B5B61605F5E616972830C
:103690008F9495959089878B96A8B3B2ADA7A7A470
:1036A0009A917F6F6D6A6351474E58616B7176785E
:1036B0007774757C80828589939CA2A5A19E9A834C
:1036C00068616160626C7E8886888D929D98858332
:1036D0007E7168666F7D899CA99C94969796909759
:1036E000A4A08C828188908A7E7A7B79766E6350E2
:1036F000474D58605A5453535C6A7A8B98A0A2A2E3
:10370000A19A8C83858F9E9F97887D7C7976787A25
:10371000767269616367696D6A605B5961727E8107
:103720007C76757B7B787575787373787E7D79810F
:10373000878E8C889199968F959692908A8C9CA76B
:103740009C908F8A88888381878982838A8B8A8CE0
:10375000939991939B968D8183878A95A1AAA19530
:103760009694888585858784857F71686A6A69698A
:10377000696C72797A797A715A3F3C495360676D06
:103780006964626264615E6163656C6F71737471B8
:10379000767E7F7F838C9090908C8581878C8D8CBA
:1037A000898A8E949591979F9F9D999596928D8EDB
:1037B0008C83808D979486787E8B9498918C858667
:1037C0008988888382838481808B8E86827E7F7CB9
:1037D000777B76716C6C6D6768707B827C777C819F
:1037E00083838A94938D837E7C80888882737177AB
:1037F000736C696867666C818E8A868A8B87828023
:103800008183898A90999B958C8986817E81837436
:1038100066616369696E706F787C797370787E7B9E
:103820007A7F8C9394908E94938F90908D898A92C6
:103830009A99928E868179726F6A6F7676757474B2
:10384000726C6F757C818484838488909694929046
:1038500088837E7D8382787576767775787B7D82A6
:1038600085857F80817F7F7978797C848C91929522
:10387000959394918D8C8C8D89827D797A78767CE4
:103880007B808485878484857F777A7E7E7D7F8038
:103890007D85877E757782877E7470747B7F889143
:1038A000968A848784837C76746D676668625957CC
:1038B000575A5D656969717C84898C837A747789CC
:1038C000918D8D8A8B877A7267677177797A7D7728
:1038D0006D6860575955515A636C7A8A918F8B86FF
:1038E0008A877B7C7F82858F8F8687889095969448
:1038F00099A39F9B9A989B979192938E8B88807E99
:103900007E7D8586848A8F928E8987888888848147
:1039100089908F8F928D858182837E7D7F7B7C7F56
:103920007F7D7C7F81807F7D82898A817B797878A9
:103930007D7F777D84898B8A86828282868A888948
:10394000898A8882847E736B6C6E6D6D73787B7BE5
:103950007679797273747675727677788186878ACC
:103960008F908C8A8D8F8D8B897F7570737A7A7A20
:103970007E848785898D8B8A8A817270716A64677B
:103980006E747270757E7C7474746F6C6660606047
:1039900060686E76848F9595948C8886817E7A7522
:1039A00079818990938E8E92918D88878888878679
:1039B0007F76777D7A78737682898883858D9495F2
:1039C000928A868583818688929A9B9A9389807D44
:1039D000787C7D75737C878C90989A9A958F878375
:1039E0008D90979CA0A09D99979690897E71625525
:1039F0004E49474B505A5F5B5C6263676C71716CF8
:103A00006B66636971787D78797D7F85898F909009
:103A10008F939D9B969DACBED0CCC1B6AAA2968931
:103A20007A7F87898C8B82837E7A7E796E5D524322
:103A30003E403E3E38363A485B6D71676B7271723C
:103A40007075746F6A5F57576165666C777F84869F
:103A50008C959AA3ACA9958278736E7380888D82B9
:103A60007573695E63666B72747C8791989CA0A283
:103A7000A69F9FA39AA0A1A0A7CFF3F6F0CFB2A6CE
:103A8000958D9092969091877E7F72696064727135
:103A9000685D5A62646E7F7A74766C717A7F969CE8
:103AA0009596939798918E878A8A7E7F7B6E6B63BB
:103AB000676D6E6E6D6B645D545259636474869865
:103AC000AFB6B2ACA5A6A29A96887A706B676A6EFA
:103AD00071706966686D695E554E423F3F4245446C
:103AE0004949515554564A4B515962626A7F8C83F9
:103AF000797F96A6A8ACB4B2A18F85898A8A898677
:103B0000807B7F868F9699A09F9FA5A8B4B6B0B3FF
:103B1000ADAEB9BFB8A49E98959C999285817C75ED
:103B20007373797772717176838B8A87888A8F92A3
:103B30009697939596928B8E8B8D8F827F7B7E7ED0
:103B40007A7676797A7B716050433D393C4F5F726B
:103B50008C9CA8B6B7B4AB9C9A93838485848784E5
:103B6000827D7B716B70644B424E5558565B656B22
:103B70006F727A807F827D7F8A8385898D908F8B1B
:103B80008684807B7873686465707D7F7D818C908E
:103B90008F8D8F989E9D9689848283848182888C64
:103BA000898A8C887F7E8488877C675B585E6B748B
:103BB000747171727C807E7F8487888D908E8F8FE8
:103BC0008F8E88857F7976706C6D73787266615A96
:103BD000585E5C5F6B7070768081807A78797678D9
:103BE0007A7B74645A5252555C6360615A5E6157C5
:103BF0005E6365717D8B9AA8AFB0B5BBC1BBBBB826
:103C0000A69F94908E88807A726464686E757371D2
:103C1000685E555260686E7B848D94A1ACB3B19E92
:103C20009A9D9C9D98908F8B828280786F74746D22
:103C30006B67635C60626871767777787C7A7C8783
:103C40008882818480837E797774736F707C889496
:103C500096909496968E8883898E898B8D8A8C9285
:103C60009495999995928376798284837B737478FD
:103C7000726A666463676D6B676C727981888F8B1B
:103C80008C93988E8988828A949A94959390959330
:103C90008F8C877C757D817A7675736A675F5B65CB
:103CA0006F7375777F888D8D8E8E89827E818B94E0
:103CB0008E827B7F7F8285827D757A7A706B737747
:103CC0007A848D908A83817F746E736F6F7E8B93FD
:103CD00095948F8A8A8F999A9A9F988E89868381E4
:103CE00080796E6A6A686C777671716F737D7E7F9A
:103CF0007C736D676E7173797A7F8286867C736B55
:103D00006A78807F7D726D72777E797C8183848012
:103D10007A747D858F95968A807E7B7A7E82808577
:103D2000919395988B82807F84878B8C8E8F8E92D7
:103D3000979692918B898A86888D8D8E8D8E8E8BAB
:103D40008A827B7B7672695E61636A748084817F1C
:103D500082868989817E7E7566605B5958585B6270
:103D60006C747D7D7369655E545250586E869AA559
:103D7000A9A29D9A8B7E6A5E6570726C666A727685
:103D8000746B6C6C6F737C878882838E99A7ABB4DD
:103D9000C8D1CDBDB1A79F968D85786A615E5F5F02
:103DA000595D6669707371717075766F62514946BD
:103DB00044433F38322E2D31373E464D61717B8969
:103DC0009CAAB1B5A99384806C5F676E778498A430
:103DD000A7A5A1A4A7A3988F919AA5ADB3B6BBC37D
:103DE000BAB2ACA09C9A9FA3A9ACABABA8A2968791
:103DF000766B65605D5A59596272767A776D707824
:103E0000797A83898F8F91989EA5ABAAAAAFAEA825
:103E1000AAAAA9AEA4998B7A726F757D82878A92BD
:103E200091827B786E69635E5C6374787B80828943
:103E30008E919899989C9A8F837D7A786C59555475
:103E40004F5360605B5F666B6B6F7485949EA4A339
:103E50009993938D887F7A6F615D6368676A7070EC
:103E6000736C594E4C5C6A7275757576706E7A8299
:103E7000878F96948B837F7B79777A808A90817302
:103E800070716F70797D77787D7B7C828181878985
:103E90008B8D8C8C93908D918F87776860636A7718
:103EA0007F7A72675A5048474E5767727E8C92915C
:103EB0008B89878A8E8C969E9F958A95A09E9691D7
:103EC0009696989A93878084898984858E94918A1E
:103ED000898E999F95939391918A8A8D8A878B88F1
:103EE00081807672787F8485796863677074758065
:103EF0008B85716363626466686D78858D8D8D8D49
:103F00008F948D83837F7D777069666D7A878E98B5
:103F10009CA19C8D84807D7C7D766D696A6C6F6DC3
:103F2000727879757378838E8986878C898A919760
:103F300098938E8887898984817F7E8A999A9D94B7
:103F40008585827F848C8C87817A7F83807B767164
:103F50006D6A6A6C6D747B7E7F8587837B767C7AE5
:103F6000777C8992979A938070686E747B7C726F6D
:103F70006E7B899292858283817E7C76777C7E833C
:103F80008A8D8E8B8F989688766B5F595D62686597
:103F9000615F6263636F797C7D8081808996928F97
:103FA0009CA8AAADBECABDA8A18D797C786D6765B5
:103FB0005F5A5756574A3E3D4648455255535C61F5
:103FC000606B6E717A7E88898B8780818B969798DB
:103FD00093929199A7B8C2B29D96969BA1A1A7AAC8
:103FE000A79B8880828589878B92928B8584878D19
:103FF00090989C9D998F8A857A75726C707B80836E
:104000008997A7B5C7CCCCD2D5D1D4D5BBA1918740
:1040100087877B757376766F6557504137312725D3
:104020001E1616140E0C10161B1F303C3C43434446
:104030004C4945516A6F6F6C645F5D5C5B595C58BD
:104040005864666D706D69686F737C7E7E86827D54
:10405000787878726D68656D747D86878D93A8C059
:10406000D6E3E3E0D6D5D3CFCBCCC2B8B8B5B7B69C
:10407000BAC3C2BFC7C8C5C4AE989594949492837E
:1040800071615C61616A726E6154474A5A686F6E11
:104090006E707578787F86888B8E878081828E9906
:1040A0009BA4B8BEB7B4B6AF9D938D8C8784848231
:1040B00085919D99938A817B73767B81888884869C
:1040C0009AAAAFACA8A9A08A787273716D6E787C39
:1040D00074726B5F5C5F64605A5C595C62696F7894
:1040E00082919D8E7A71747C81817F86979F979053
:1040F00092A0B1B6AE8E6F5D524C4B4A454E535CAA
:10410000686B6A68625C5D55504F596A8195A2A9D7
:10411000AEAD9A82715D4E5056595853494D575A1B
:10412000514A515F70798289949BABBCBDB9B2B4DE
:10413000B0A09283787671686A6D6E7167626C7AEE
:10414000899AAFBEC9D0CAB9AEA08C837A76746F93
:104150006B6D7385959FABAFB2B7B5B0B4B6B1B068
:10416000ACADB0ADABA59F938A8578665148443716
:10417000363E444C51606C77868D8895A7A69B8609
:10418000684C454A50504C5A6E7477746E64616541
:10419000656D6B53454D606E717C888675604E45CC
:1041A0003F3E454649546672727A8995A7B0A9A0E8
:1041B00091888581858A8C98AEB6ACA197979183BA
:1041C0007E797270757A7A7F828081868987868E01
:1041D000928C85817D7A7F817C7A766764727E811C
:1041E000888C9094969A999A8B7F7C7A7879787556
:1041F000797D858B8C96A8B2B6B5AE998A8F9AA830
:10420000B4AE9FA1A8ABA69990836F6D766C6562E2
:104210006A7D8D9189858283878175737673757BBD
:104220007C7E8384807B69544E5562656A6D7E987E
:10423000ACB9BBBFB8AEAEAFA0907F716866615F2E
:10424000676D6D656466758B968A7B6E62544F46AA
:104250003B484F51545C534940374551524D4036CD
:10426000342A282D2D2B2B2836455560656E798AEA
:10427000867C7778869193897D76665557584D4729
:104280005D70788391958D929FAAADADB8C4BFC380
:10429000C7BAB0B3BDC5D1D6D3D0CED3DCDCDEE750
:1042A000DFD2CDCCC5BEB5A39583746254484046D9
:1042B0004C525B6C8093A9B6BBBFBFB8B9BDBDB94A
:1042C000AA9487837571777471788593A9B8BFCCE8
:1042D000E1EDE5D8C8B2A49C867E76646576878FCA
:1042E000999C9B90796655453E443F3940484958D2
:1042F0006D74899A9A97948D81797A7C7D7A7A7B8C
:104300007479849090827769666A696B73725F537F
:104310004A41474F5C615A6481979BA0A097909354
:1043200093929DA8A9AAA89D867C8281828B8F8C5E
:10433000919684706E73757B7E817F78787E8D9F79
:10434000B3BBB8AAA4ABA6A09A938F9CACAEA58928
:104350006B5D4B2D0F0000000002010607050E18D3
:1043600025394A5D6C6D6872878F8D7F75786F62B5
:10437000534A463C2F170405060A0F1210183B4EED
:1043800055595C636C76736A69768395ABB2ADAD53
:10439000AEB2B0A7A3A290828CA0B3B9C4D2D6D536
:1043A000D1D3DCDCD9D9D9E2EEEEECF1F7FDFBF9A3
:1043B000F6F4F1EAE3DED6D3D2CDC6BBAE9D949738
:1043C0009E9C918D91887D6A575B5E5A5455585DCD
:1043D0005E53423A44505E6B75838B92A0A09499D1
:1043E000A5B2BBB1957E7A7C827D72655C595952CB
:1043F0004C4A3F32261B172743617C929C9B979720
:104400009CA4B2C0BDA9A5A79E9AA8B7C2C2B8A5D0
:1044100096938B83776B5A505756534A433F332CAE
:1044200025221D2228272D373E3E3E37373E3F426C
:104430004D5A6C73736B66686769737F7D7A6C62C3
:10444000615E5C657A878DA1B9CAEEFFFFFFFFFF51
:10445000F9E9D9CED1D9E2E9EFF1ECEDEEEBEDEBF4
:10446000E6E1E0D1BCB5B0AEA295847E715547358A
:104470002721160F151C2329352D191105040300BA
:104480000304050A0C080D0F0E110F1113130F0C66
:104490000D0E0D06020000060D202F3D56677A8D89
:1044A00099AAC8D8E0DFC1B2B5B1AAA9AAAEA79DA2
:1044B000A6AEB2BCC1C8CBD3DAE0EAE4DED4C8BB56
:1044C000BABCBFCDD5DFEDF7FEFFFFFFF7E8DBC4D9
:1044D000BBBCBFC6D0D5D1D5DBD6D4DEEFF9FAF957
:1044E000F7F8F7F7F0DAD1CFCCC8BEBAB5AFADAEBA
:1044F000B6B3A7907A71655D55575959646B6A5F79
:10450000555452504E525D646B665A504E5A5A5B27
:1045100065738591968E8177787A736D5D5E5B5455
:104520005C605B4F4C4E555953514F46474C55625A
:104530006B76725E524C4D53565E626D7B7E8593F8
:10454000A0ABB0AFABAAA9A3948078727977727A46
:104550008194AABFCACDC9B2A3A9B4BAAC8C716206
:10456000513D3632271D2234484B44403E474E5978
:104570006157514333251B181008070C16131215E9
:10458000120F141E324C5C6C79726A6D73849BAD91
:10459000B3B0A9A5A0988F837E797E889298A3B1A5
:1045A000B5ACA5ABB4C1D0D7DDE1DDDBD6D2CFCF82
:1045B000CEC4BAB1B0B6B7B6B1A8AFAEB0B5ACAABA
:1045C000AFB0ADAEA7A8ACACB2B1A39E998C898CAC
:1045D0008F9086797D8078788087847F86827E7BC5
:1045E000777E7D7F7E797A75727371716E64616397
:1045F0006A6B6E6E6A76787275839591857E7F7C24
:104600007880827C7B77706E70706D6364686559AA
:10461000505459606F756F7177838D83837C716F90
:1046200069686E757E83858B8C7867687078736A2D
:10463000656A71767677787676716F6A6867646393
:1046400063676866666B7687969D968A878C8C7E94
:10465000797975767D7D7978726C69645752575C8B
:104660005C575B616462616567717B828890979C2F
:10467000ADBBC7CCCDD2CFD2CCC7C4BCB8B2A8A03A
:10468000A0A0ACB1ACAAA49D9D92889197958C8670
:104690007B7068615F533F261621353C3E3C393ABA
:1046A0004154636C74787A7D7E736A6764676C6763
:1046B0005E6771737A79737A7A737B858D929B9D2D
:1046C0009697918985828693ADBAC8D2DBE4D6C924
:1046D000C4C2C1B9ADA58C736458545566757B8747
:1046E0008D8C8A86898C91938C89847F775C382025
:1046F000131009040E100E121F2735454A646F72FD
:1047000079757F8073665B4F4651656E747E7B69F9
:104710005C504F5A606F7F899EB2C8E0DDD9E3E9F3
:10472000EBDDCAC5BCA99F9991878078737B7977A7
:104730007A7F899BAAB5B6AEABA7B0B6B2A69E9B50
:1047400092817371777D81848897A19D979C9A8CC3
:10475000838578655A585A6372767475808A99A3EE
:10476000A0A6B1BCBBB2B7B6BCC6CDC2B3ABA0A706
:1047700099928F8B87868F999187827F7F7E8282A5
:104780008986867D6F676866605A555957595A5DA4
:10479000575151565F697678727276817C6C665D8E
:1047A0004A393837373A2D1C141626343F4A546399
:1047B0006D6A7387857D88898785877F70736B6352
:1047C000666A6A707A84909B9D938D8D8D8D939B84
:1047D000A19F9590949AA3A8A098A3B1B1ACA194DD
:1047E0008D888C9397968A7F7A8187888A8E96A601
:1047F000AAADAB9E9B928B87858385837B7F848BC1
:10480000908E8E8C87868F9086807C726F7C7D7771
:1048100073706F6F6A636B6E6B6A71736D6F7171BA
:10482000727273797F8384807A787C8081807D76D0
:10483000747B7D7E7B75726D6A68676A6362635F95
:10484000696C717B838B90989FA29D8F86858182F6
:104850007E7B777071737C8D928D88868C9092911F
:10486000908A888E8C8479787B79848987817A7D17
:1048700081838186898680797778787A817F7A804A
:104880007E7773706F74858D8B8D90908E8F8D8AEF
:10489000887C726D6C6E6862697A7D7F8991968F73
:1048A0008B898688888E979F9B97A0A198897D7910
:1048B0007A808988817E7F7F7C77777E7F808B92EC
:1048C00092949EA5A19B9995939082787172766F30
:1048D0006E74726E615B5E5C5B6167686A72787A47
:1048E00081888C91918D91928F8D8B857B7474735F
:1048F0006C686D7A80837D787C7D83867F7B777A18
:1049000082837A7678767773777C7E868D8A847FC9
:10491000746A64605C5B64707F8784807D7D7C7674
:10492000747A828685837D7A7F8482827B757272B7
:10493000777F817F8180838A8D85858E89827C784F
:10494000828B8E8C83848486827A7B81827F84882A
:104950008482848A8B8A9197968F90949391929077
:1049600092989795928781776B61575C60636D76BB
:10497000757279838E939698A1A7A19E9183878E55
:104980009394908B8C8E8C857778787A77737B7400
:1049900071757D8084888A8B8B807574777465557A
:1049A0004B4F4F4E4A484C535B5C5E5E646D787C67
:1049B0007A766B6C717374716B656971736E68660E
:1049C0006E7A7D787D8A95A2ACA8A1A5A7A9B2B080
:1049D000AFB2AFAFB4B7AC9D9191969186776A674D
:1049E000676E777D888F8F8C8B919DA2A2A2A1A6E6
:1049F000A99C93989DA19D9795948D868CA1A09636
:104A00009B9B939190837D796E65696C6D6D6D72E2
:104A100077787B868F9495928A827D73645B482C2D
:104A20002630363E4842383D4A52554E4C51504F42
:104A3000525E60626D6F6F706C6C73808284949A4A
:104A4000968A85837A7773777C75766F68717879C3
:104A50007C848689949692939194979B999396A13E
:104A6000ACABA49A93929287848E8D878280889231
:104A70008D807C7D86919A9E978A7870797F8A8EC8
:104A800094A3A9B1AFB1A9907F6D64676C6E6B6799
:104A900063657278787979787679797B8385848192
:104AA0007C7E87898B969D9A8E7F7676787B7679C9
:104AB00082898E8576716E6A696E767C7F7A75746E
:104AC0007F898D9BA6AEAD97817E848B8A858897E2
:104AD0009C94908A8388898C908F8D92979D9D9EBF
:104AE000A09C927E6C646E7D7E797976695C5B6356
:104AF0006D6B605A56545A62625F64747774716B5E
:104B0000737C868984807A75787E81807E81807EC0
:104B100080878D89827E7E7A75797E808285765EB9
:104B2000575D676A66718084847B7374757272786E
:104B30007D7B757781817F808A8E8E908D8A7C7651
:104B40008892959488848787898D8C8179716F721A
:104B500074757B8081818183838788898B87878E29
:104B60008D888788827E81827E7C8483878E9194E3
:104B70008E7C63595C677273737268656C74778539
:104B80008B7D777E808B999C9A91837C8288909094
:104B9000898684807A6F655B575E5E68767C8287E3
:104BA00087898E918F8F98A0A29A928E8B96998CDE
:104BB000847D706B6964636B797D7A7775777C7FB0
:104BC0007B7572767D8184857D77737A817E7C7A30
:104BD0007D82867F706B6D71797F85899298999FB0
:104BE000A29C9A999796969998999695999F9A9238
:104BF00095948C8076706A66666464667075767764
:104C000071737B868789908F8E8D8E8C8C847A755C
:104C100071706F74716E6C6462656D757C7B75729A
:104C200071706C66666E7E8C92918B868386888CA2
:104C300097988D817A6F666262646B777E818280DD
:104C40007B756F696D787B7B7A77787A7F7B7677F7
:104C50007B7C79747A8383777072767C7E888B8A8A
:104C6000908F88817B7572706F6A6F7677797971B2
:104C70006E70707A87888586828185847E776C6A7B
:104C800078868B817D7C7B81817A7D7A737B848D34
:104C900097A1A8ACA99C908B888279706863707A80
:104CA0008088827E827F7D7D7A78757E878B8C8BF3
:104CB0008C91989991877C7B8181838786898F9657
:104CC00095877F7B7978736F6B696B6B697681846D
:104CD000827E7F7E808286909AA3A6AAAAA3A0A0A5
:104CE0009B9592979E94847E7B76747B827D767270
:104CF00073787877797E83827E77777B7C7A797513
:104D00007781878780797370717274787C7B726B1E
:104D1000686B72737373716F6D6C6B6C6A697178A9
:104D2000797A7E848883817D7B79787E7F868F8F78
:104D30008C857E7F7976787B7F838686837D7C7881
:104D400073798286837F7B7472797D7D7D7D7A73B2
:104D50006E70777D7D828A8B88898D898586827D3C
:104D60007D7F7F7D7D818483807C7B7E83888D8D2C
:104D70008D8B8484827D7B7B777C82868A8A8F97E9
:104D8000A6AEB1B4AE9F8F81796F6057534F4F5528
:104D90005D626A737A878E8E8E90939190959896C5
:104DA00095948C86847D756D696057514F4E4D5733
:104DB0006265625E5F656F736C6967656C7E8B8F21
:104DC000999B9592949CA1A9A8A39B8E867B7068C1
:104DD000656667717A7D818484807E82858A8E850E
:104DE0008289939C9FA09C91887E79797776727155
:104DF000757B7B7E858C9293938B8174605B626400
:104E0000676A6F78735D4D3E373C3F4041444E5B6F
:104E10006D7775757C838995A1A19B9591959B9FD5
:104E20009E9B999590897F76777872727B8996A3FD
:104E3000ADB2B7B9B9B1ABA7A7A9A3A09F9E9C96E5
:104E4000949285746B696A71797C7C8082807A72B5
:104E500071767A87939DA5A6A19488858583868B94
:104E60008C92948D847A716B6B717473707076769A
:104E7000706D6B656767676E685D5B666C6B6D6FA9
:104E80007373737372716A63646C768388858583C8
:104E90007F78767A7E878F8D8C8F8D85817A7676F6
:104EA00073727474717171757D848A8E908F949809
:104EB00096908A88868890969591969B97908987F8
:104EC00085868E919194928C887F767269666A6FDE
:104ED000737A7D7E807E7F7A776F6564676A6865A6
:104EE000636A6C727A7E84868A9093979FA8ADAB32
:104EF000A59E989593949793857C726B6761616585
:104F00006A696C757D8285847F7A797A7D828788EB
:104F1000868588888D9396928B878D948E82786E05
:104F2000625C5858606A737B7D7A78797A797A7C8A
:104F300079797B7775737279858C8B8B8F8F908B5A
:104F4000838685828486878D93908C888078716E25
:104F5000706A605C5558636B79848B90928A7C6F21
:104F60006A676A72767E89918F8F9193958E888613
:104F7000817C7B8081807B7A7F7F84898C88828022
:104F800080817F7B7A79808B959992898078726C09
:104F90006A727B8385817F7D8184888D90939799C8
:104FA00098999897908378727679788086878B8B9A
:104FB000847B74706A65656D7A83878C8C877F7A51
:104FC000757375787673777A7E8385807D7B7C7C3C
:104FD0007A75737674777B79767271787D848A912D
:104FE000948E8E96A0A09288817B78726F6D6D6A88
:104FF00064625F606B737A82848685858687848429
:1050000087898986888B8E8E8A898787898884801C
:105010007F7D787274767474767A7F7C757174771C
:1050200079787A7E807E7E81838687827E817F7F8B
:105030007C7B7F8384807D7A7A75747A8184888989
:10504000868181888D918F898A8B8988837F8288E8
:10505000909A9E9A938F8E8C8E8E8D8D8C87868162
:105060007A7674757374726D68676C7277798086FE
:105070008D928F8F8D877E7A7F83888F938B8482AA
:1050800084898C92969084827B6E69656971778140
:105090008A8C867E746D7074706C6E727068686CC9
:1050A00072797A7B78787A7A7D7973777B76737781
:1050B0007E87817A797979787A78746961616466B2
:1050C0006A727B888A88877D736E6E6F71777F8640
:1050D0008B939F9F97938D88857F7E83858586851B
:1050E00080797977737473737C7E7874706C6B726B
:1050F0007475797D818891989793909093908C8521
:10510000898F8D88858280858A90969698968B81E6
:1051100082858286898B919CA7ADB3B3ADA7A29AF5
:105120008F878483817B756B676C716F6A6B6E7020
:105130007881878B8A887F767069696966666C7208
:1051400078838887888B8A8C918F89848081898FE6
:105150008C867F776C60544E535E67707D8283814E
:105160007D7F8387838081838382858B8988878401
:105170008583807D7B7A7B7A7473787C80868C8F44
:10518000908B85838489887D7B7B7776787F898DFA
:10519000919C9F9F9B948D8485878174665C5456F7
:1051A0005D647281898E8B7D75726963646A737BBD
:1051B00081858A8D8D8C8F89807C746D7683888EB5
:1051C0009295968B7B6A5F6A7778797B7D7C7C8011
:1051D00084827F7E7C80878B8D8F92929296999627
:1051E0008E847F828388929594918A85827E7D8544
:1051F0008883818285888A877F7B7F8079747276B5
:105200007D80828F97979A99938C83736B6F72715D
:105210006F747B848A8785858683817F7A797773AB
:10522000757A7C7D7E7A72716960656C6F6D6A6B70
:10523000707576777A7E84827C7D878F8C857E7C84
:105240007F80796E6D7477797C7E7E7C7B797B7FC5
:105250007B74727378808285867B6D65676F7370EF
:105260006E73818E979A9B9FA09D99948C817B7D74
:105270008892918A837F776E6B7075787A766E628A
:105280005F656E777F878D93989E9F9CA1A6A2965F
:1052900083746863666C6F77797772625F68717424
:1052A00074787B7A7B7D7B7A7B7A746E6C6E727499
:1052B0007371757C81828588868483827F7D7C7F03
:1052C0007F78726F6E747A80888F919AA7A59C926E
:1052D0008D8D8D8C8E8C8784807E7C7C7B77787D99
:1052E0007E7875798389898C8D8D8B84808181848A
:1052F000878D9091928F9294999E9990847F807ED1
:10530000756C6969686A6C6B6D777D808485888847
:10531000898C8C8C8B8B8B8B8C88817C7A797A7A3C
:105320007A7F83837C7875757B7F807E78727474D6
:10533000737474747A82868A908D84868785837E5E
:105340007A7A7B7D7F7B7B7C7E81808082858D935A
:1053500094928B878A8A87878786878686878581C6
:105360007A746D6B6F726F68676F797F80828481EA
:105370007A6F6968696D737E837F7E84888C8E8D79
:105380008E9498979691887E7877787B78706A6803
:105390006A6C707A8389868079706B6D6F747A809D
:1053A0008787837F7976726D6A6B6F757C7F838A5E
:1053B0009296948F8A85807C77777B7E8283888C97
:1053C0008B8C8F908D8582828181848B9498989527
:1053D000908C837A797A78726D6C6C72787B7E822D
:1053E00083807E79716A6A70797F808487898883F7
:1053F0007E78777C7A78777474767472726F6E6F59
:10540000747F85888783848587888A8785847F7B66
:10541000746C6B717B848C919597948F8B88898940
:105420008B909396958D8A857D7B787778787D872C
:105430008A84807F7C7A787A7F807F7D80827E7E7E
:10544000807B7C807F7F7E7D7A7C80858A89858158
:105450007B726B6A6E717377808587878686827AA6
:1054600077787977767D838381848D9194999EA1D5
:105470009F99959392949DA9AFA6998B7965504178
:10548000352B2B343F4A5762697173747A83898E46
:105490009BACBAC0C1BAA9917B695A504C4F5864B1
:1054A0006A6B6F6F6E6966676E727278879298A08A
:1054B000A8A59A8C807C7E83898E919698948E8AFA
:1054C000837F7C7A7D7E82817B7D838581818382DF
:1054D0008180807E7974707274767674777D858928
:1054E0008E90909393918E8A88898884837F7B792C
:1054F00073675C5A5E646B727D8A8A847F7D7D7C73
:105500007F858C9092918C88878786848081888D16
:105510008B898B8B87817C7B7875716B6A6D7175DC
:105520007C8385898D8D897F7A7C838A8E91918C0D
:1055300087837F7A756F6C6B6D75818583848785B2
:1055400082807C7771767F7F7B7B818686837C758A
:10555000757779766F6A6B727A7E83837E7E7F80C1
:105560008183889095928C857F7975777D858785F5
:105570008A8E918F8C87817E7D8089908D8A8A8C9E
:105580008C87848385847F7C7A7776797C7C77743A
:10559000797D7A746C635954555C646A738086892A
:1055A000919CA19783756B6566696C70717578764F
:1055B000767B7C78787D7D7D7F81889298979490AA
:1055C0008B858281807C797B80868C8F8E888079A8
:1055D000777676777F8B93949493918E87817E7D77
:1055E00082878A8B87838384818081868683828475
:1055F0008A8F928F837770706F6F73767B828382CE
:10560000878F908D8C8D8F8F8B8075717276757270
:10561000727576747273716E6F747B8080818B97F4
:105620009DA09E9894928C847E786E6A69645C5387
:10563000525A60666E787D83898D929292979DA56D
:10564000A9AAAAA69D90807268605B57534E4846EF
:105650004E5A656F787C7E82899198A2ACAFA99FE3
:1056600094897E74706E6F6F72797B7B7A7C86937F
:105670009FA29A8F867B76767879766E6B6E707144
:1056800071757B8387827D7F868E9AA6AAAAA6A241
:105690009780695A504B4B4A4743424854606B7657
:1056A00081899AB1C3D4DFE3E4E4D8C1A895877FA8
:1056B000746A6762594F403431363D485359626BC2
:1056C0006F757D8284858687919CA3AAB1B4AB9BBC
:1056D0008673696564666A6E717375797B7A7B819E
:1056E0008383837F7D8189949DA1A5A8A7A09A9B90
:1056F0009B9C9A958E83776C6563656566676F7A08
:1057000080868F9AA7B8C6CED2D1C8B69E866D566F
:105710004B484A4E4D494139393D403F3E3E465B3C
:105720006E79848D939EAAB3B7B4AC9F907F757148
:105730007273706E6E6B66656A6C69635E59575EF4
:10574000656C737980898F929498989796939088D6
:105750007F80888E8B888785888E92928A827E81D0
:1057600088919B998F8D909595908880828B939648
:1057700095918D8682807D80848A9192908D8B8E8A
:10578000949DA2A39D92857B6E64666D72706D6917
:10579000676B727980848A99A8B6C5D2E1F1F6E97F
:1057A000CDA8856C5A4E4744413A343034383836A7
:1057B0002F2B2E3742494E5258636E72757D7E757F
:1057C00068626A777E848F9594969A9B93877C73A0
:1057D000675D5B5E5E575256626D6D6765686A6EA7
:1057E000767B838D99A5ABABA9AAAEB2B0AAA599D9
:1057F0008F8E908E8A86888F999E9D99938E8D8CA0
:105800008580838C959B9B9897999EA2A09D9D9B3C
:10581000948E8F93918B898988898D8D87827F7EE5
:10582000828788888E9799948E90918E8F93939388
:1058300093918E877F787373747474716E6A6A6FD4
:1058400074787D807A726E6B6B6A635E5D5E646D88
:105850007374777777746F6B686259565D676D7193
:105860007273797F7E807F79797B7B7B7D7B75719D
:105870006D69635E5E626C7676706A6D706F6D6B7B
:1058800069686B74818D919294989A9C988F8985A0
:1058900085827A74737576777774757B7F7F7F7A6C
:1058A000736C6D757C8084898E8F8A8584899096CF
:1058B0009A9A97928D8D8D929899948B84858889E8
:1058C0008888878887847F7D7C797C807D777270EB
:1058D000747A7B7878797B7F83898F928F8B8A8AA1
:1058E0008987848181848685827A787C81817F839F
:1058F000898B867D77787E8384838284868787867A
:105900008A8B8A898B8E908E878384888E92908CE6
:105910008887868583808084898986807A78797D66
:10592000858C8F8C87858787817A7271777A7A7C6C
:105930007B787778787671717375787C7F818486CF
:1059400086837F7E7E828786837D77737578797C78
:105950008183807B767174767477787271757A7DC5
:105960007C7979797A7A7978797B7C7A74727578AE
:105970007C80807E7D7F7F7D7E817F7C7A7B7E8147
:1059800082858B8E8D8B88827E80848685828081C5
:10599000837E756F6E757C7F7E7D7F828587878530
:1059A00082807E7C7A7C81817D7B81888B87807CF4
:1059B0007C7F7B6F666871797D7F81818183838540
:1059C0008787838485837F7B7E878E8E88827D78A0
:1059D0007675787B7B7C828B8F88828283838587B8
:1059E00087857F787677797A7C82888988888987A5
:1059F000888988878C928D868383858B8D898A8818
:105A0000827B75757A8086877F7673737373747300
:105A100072757D817F7E7D7F808286847F7C7A79AE
:105A20007D868A8A847F7C7672737472767A7A75C0
:105A300072727475797F807B797C7B7A7D848583B3
:105A4000827F787071777F8282807D7C7C7B7774A7
:105A5000767D8584858685848383827F7E82878820
:105A6000888686898D8D8A888685888A8E8F8D86A0
:105A7000807D7C7D8182807F7E7E8284858889890D
:105A80008C8B837B7169686C747A80838487857D55
:105A90007875727378808484827C7A7B7F8A918F18
:105AA000878281807C7A7F86858384807B77727011
:105AB0007780898A8988807A78797C7D7D838681E0
:105AC00079777A7C7773726F6E6F70737475797D86
:105AD000818485868585858788847E7876747473CD
